:020000040000FA
:100000000C9462000C948A000C948A000C948A0070
:100010000C948A000C948A000C948A000C948A0038
:100020000C948A000C948A000C948A000C948A0028
:100030000C948A000C948A000C948A000C948A0018
:100040000C9400030C948A000C9470030C944A03E3
:100050000C948A000C948A000C948A000C948A00F8
:100060000C948A000C948A000000000024002700F1
:100070002A0000000000250028002B0000000000DE
:1000800023002600290004040404040404040202DA
:100090000202020203030303030301020408102007
:1000A0004080010204081020010204081020000012
:1000B0000008000201000003040700000000000027
:1000C0000000A20311241FBECFEFD8E0DEBFCDBFDA
:1000D00011E0A0E0B1E0E4E2FCE002C005900D9286
:1000E000A636B107D9F722E0A6E6B1E001C01D921D
:1000F000AB37B207E1F710E0C2E6D0E004C02197C9
:10010000FE010E940A06C136D107C9F70E942F04DA
:100110000C9410060C94000096E0899FD0011124E5
:10012000A45FBD4F90967C936E935F9791E09196FC
:100130009C939197E0917902F0917A0290917802E4
:10014000992339F0309751F0811108C0809128022D
:100150000994309719F05C968C91FACF0895CF925C
:10016000DF92EF92FF920F931F9396E0899FF00129
:100170001124E45FFD4F11A2278D30A121303105FC
:1001800051F178F02230310509F451C023303105A6
:1001900009F452C01F910F91FF90EF90DF90CF9024
:1001A00008956623B9F361E070E00E948C002FB7D8
:1001B000F89480916B0190916C01A0916D01B091C8
:1001C0006E012FBF8093640290936502A093660234
:1001D000B0936702DFCF9FB7F894C0906B01D090C7
:1001E0006C01E0906D01F0906E019FBF0091640280
:1001F000109165022091660230916702C01AD10AFF
:10020000E20AF30A009176021091770230E020E0D2
:100210000C151D052E053F0550F462E070E01F919E
:100220000F91FF90EF90DF90CF900C948C006111B4
:10023000B1CF63E070E0F3CF70E060E0F0CF8330E7
:1002400081F028F4813099F08230A9F00895873048
:10025000A9F08830C9F08430B1F4809180008F7D9E
:1002600003C0809180008F7780938000089584B5CB
:100270008F7784BD089584B58F7DFBCF8091B000CA
:100280008F778093B00008958091B0008F7DF9CF73
:10029000CF93DF93282F30E0F901E255FF4F84918F
:1002A000F901E656FF4FD491F901EA57FF4FC49187
:1002B000CC23A1F081110E941F01EC2FF0E0EE0F82
:1002C000FF1FE458FF4FA591B491EC91ED2381E01D
:1002D00090E009F480E0DF91CF91089580E090E014
:1002E000FACF1F93CF93DF93282F30E0F901E25527
:1002F000FF4F8491F901E656FF4FD491F901EA5777
:10030000FF4FC491CC23A9F0162F81110E941F0129
:10031000EC2FF0E0EE0FFF1FEE58FF4FA591B491C8
:100320008FB7F894EC91111108C0D095DE23DC93BF
:100330008FBFDF91CF911F910895DE2BF8CFCF9320
:10034000DF9390E0FC01E656FF4F24918A579F4FC0
:10035000FC0184918823C9F090E0880F991FFC016B
:10036000E859FF4FA591B491FC01EE58FF4FC5919C
:10037000D49161110DC09FB7F8948C912095822380
:100380008C938881282328839FBFDF91CF91089584
:10039000623051F49FB7F8943C91822F809583236B
:1003A0008C93E8812E2BEFCF8FB7F894EC912E2B06
:1003B0002C938FBFEACF862F642F0C949F01862F3A
:1003C000642F0C947101862F0C944801AF92BF9258
:1003D000CF92DF92EF92FF920F931F93CF93DF9311
:1003E0006C017B018B01040F151FEB015E01AE1840
:1003F000BF08C017D10759F06991D601ED91FC9162
:100400000190F081E02DC6010995892B79F7C5018E
:10041000DF91CF911F910F91FF90EF90DF90CF90E0
:10042000BF90AF900895FC01538D448D252F30E08F
:10043000842F90E0821B930B541710F0CF960895F1
:1004400001970895FC01918D828D981761F0A28D1E
:10045000AE0FBF2FB11D5D968C91928D9F5F9F73E4
:10046000928F90E008958FEF9FEF0895FC01918D9A
:10047000828D981731F0828DE80FF11D858D90E007
:1004800008958FEF9FEF0895FC01918D228D892FA4
:1004900090E0805C9F4F821B91098F73992708958C
:1004A0008FE691E00E94440221E0892B09F420E0CC
:1004B000822F089580E090E0892B29F00E9450025D
:1004C00081110C9400000895FC01A48DA80FB92F90
:1004D000B11DA35ABF4F2C91848D90E001968F736C
:1004E0009927848FA689B7892C93A089B1898C918B
:1004F000837080648C93938D848D981306C00288DA
:10050000F389E02D80818F7D80830895EF92FF92A3
:100510000F931F93CF93DF93EC0181E0888F9B8D26
:100520008C8D98131AC0E889F989808185FF15C0E0
:100530009FB7F894EE89FF896083E889F989808103
:100540008370806480839FBF81E090E0DF91CF91D2
:100550001F910F91FF90EF900895F62E0B8D10E0F4
:100560000F5F1F4F0F731127E02E8C8D8E110CC063
:100570000FB607FCFACFE889F989808185FFF5CFAE
:10058000CE010E946402F1CFEB8DEC0FFD2FF11D27
:10059000E35AFF4FF0829FB7F8940B8FEA89FB89EB
:1005A00080818062CFCFCF93DF93EC01888D882349
:1005B000B9F0AA89BB89E889F9898C9185FD03C0C6
:1005C000808186FD0DC00FB607FCF7CF8C9185FFAB
:1005D000F2CF808185FFEDCFCE010E946402E9CF8A
:1005E000DF91CF910895FC0101900020E9F7319748
:1005F000AF01481B590BBC018FE691E00C94E6015A
:100600001F920F920FB60F9211242F933F938F9347
:100610009F93AF93BF9380916B0190916C01A091D8
:100620006D01B0916E0130916A0123E0230F2D37E7
:1006300058F50196A11DB11D20936A0180936B01AD
:1006400090936C01A0936D01B0936E01809166014F
:1006500090916701A0916801B09169010196A11D77
:10066000B11D8093660190936701A0936801B093D8
:100670006901BF91AF919F918F913F912F910F9001
:100680000FBE0F901F90189526E8230F0296A11D0C
:10069000B11DD2CF1F920F920FB60F9211242F933C
:1006A0003F934F935F936F937F938F939F93AF93FA
:1006B000BF93EF93FF938FE691E00E946402FF9156
:1006C000EF91BF91AF919F918F917F916F915F91CA
:1006D0004F913F912F910F900FBE0F901F90189543
:1006E0001F920F920FB60F9211242F938F939F9307
:1006F000EF93FF93E0917F01F09180018081E09181
:100700008501F091860182FD1BC090818091880156
:100710008F5F8F7320918901821741F0E0918801EA
:10072000F0E0E159FE4F958F80938801FF91EF91A2
:100730009F918F912F910F900FBE0F901F90189542
:100740008081F4CF109272011092710188EE93E0D3
:10075000A0E0B0E08093730190937401A0937501C1
:10076000B09376018CE191E09093700180936F01DA
:1007700085EC90E090937C0180937B0184EC90E089
:1007800090937E0180937D0180EC90E090938001B6
:1007900080937F0181EC90E09093820180938101AE
:1007A00082EC90E0909384018093830186EC90E04A
:1007B000909386018093850110928801109289019F
:1007C00010928A0110928B0110920E021092120266
:1007D00010921102109213028EE291E090930D029A
:1007E00080930C02E8E2F2E01082148213821582F8
:1007F000369682E0E436F807B9F784E091E090930A
:100800006F0280936E0280E091E09093710280937A
:10081000700284E0809372028093730288E091E01A
:1008200090936D0280936C028AE090E09093750241
:100830008093740284EF91E0909377028093760224
:1008400010927A0210927902109268021092690254
:1008500010926A0210926B021092780208957894B6
:1008600084B5826084BD84B5816084BD85B58260B5
:1008700085BD85B5816085BD80916E008160809366
:100880006E001092810080918100826080938100CF
:1008900080918100816080938100809180008160DF
:1008A000809380008091B10084608093B10080913A
:1008B000B00081608093B00080917A008460809362
:1008C0007A0080917A00826080937A0080917A0029
:1008D000816080937A0080917A00806880937A00AA
:1008E0001092C100E0917F01F091800182E080834D
:1008F000E0917B01F0917C011082E0917D01F0910B
:100900007E018FEC808310928701E0918301F0914A
:10091000840186E08083E0918101F09182018081F1
:1009200080618083E0918101F09182018081886003
:100930008083E0918101F0918201808180688083D1
:10094000E0918101F091820180818F7D808384E339
:1009500091E00E94F3028CE491E00E94F302812C6A
:10096000912C5401839422242A94322C50E0652E39
:1009700050E0752E51E0509378028FB7F894409173
:100980006B0150916C0160916D0170916E018FBF90
:100990008091680290916902A0916A02B0916B0205
:1009A000481B590B6A0B7B0B809174029091750266
:1009B000B0E0A0E084179507A607B70708F017C1B5
:1009C000C0E080917202C81760F4E0916E02F0916D
:1009D0006F02EC0FF11D62E080810E949F01CF5FEA
:1009E000F0CF512C80917302581608F05FC0052D8E
:1009F00010E0E0917002F0917102E00FF11F61E0F0
:100A000080810E949F01E0917002F0917102E00FDD
:100A1000F11F60E080810E947101D501C401052CA5
:100A200004C0880F991FAA1FBB1F0A94D2F76C013C
:100A30007C01E094F094412C809172024816F8F405
:100A4000C42DD0E0E0916E02F0916F02EC0FFD1F1B
:100A500080810E9448012496CC0FDD1FC45FDD4FCA
:100A6000892B41F4888199818C299D2999838883D8
:100A70004394E2CF888199818E219F21F7CFE09125
:100A80007002F0917102E00FF11F61E080810E941D
:100A900071018091700290917102080F191F60E03E
:100AA000F80180810E949F0153949CCFCCE0D2E05A
:100AB000FE01878D90A1892B21F4148E368E258E10
:100AC00011A2369652E0E834F50799F710E08091CC
:100AD0007202181708F053C000E0E12EF12CEE0C62
:100AE000FF1CC7018C5E9D4F7C0120917302021791
:100AF00008F043C0F70160817181002E02C0769535
:100B000067950A94E2F7129F90011124200F311D7E
:100B1000ECE0F2E080E0458D568D2417350709F4AE
:100B200077C08F5F36968A30B1F760FF24C0ECE063
:100B3000F2E090E080E0448D411118C0E0916C0239
:100B4000F0916D02E20FF31F408156E0589FF001D3
:100B5000599FF00D1124E45FFD4F448F368F258F90
:100B600010A2178E61E00E94AF0005C00196369674
:100B70008A30910501F70F5FB8CF1F5FA8CF80E0E3
:100B800099A19111892F269692E0C834D907C1F70F
:100B90009FB7F89440916B0150916C0160916D0189
:100BA00070916E019FBF40936802509369026093F9
:100BB0006A0270936B028823D1F080912D02882302
:100BC000B1F080912B0290912C02019781F4C09199
:100BD0002802C1110FC06114710409F4CBCE0E9428
:100BE0005002882309F4C6CE0E940000C3CE1092A2
:100BF0007802F1CF8FE491E00E94F3026C2F8FE630
:100C000091E00E9486028CE491E00E94F302E3CF1F
:100C10006170A9CFEE0FFF1F0590F491E02D0994AC
:100C2000F894FFCF05040302090807063738392F67
:100C30003435362A3132332D43303D2B000000004D
:100C40008602E6011302D3024402220236020000A9
:100C50000000DB01DF01E301536572626120437232
:100C6000697374696E612043522D323231465200ED
:100C70000D0A004120666F737420617061736174A6
:0A0C8000612074617374613A200072
:107E0000112484B714BE81FFF0D085E080938100F7
:107E100082E08093C00088E18093C10086E0809377
:107E2000C20080E18093C4008EE0C9D0259A86E02C
:107E300020E33CEF91E0309385002093840096BBD3
:107E4000B09BFECF1D9AA8958150A9F7CC24DD24C4
:107E500088248394B5E0AB2EA1E19A2EF3E0BF2EE7
:107E6000A2D0813461F49FD0082FAFD0023811F036
:107E7000013811F484E001C083E08DD089C08234E0
:107E800011F484E103C0853419F485E0A6D080C0E4
:107E9000853579F488D0E82EFF2485D0082F10E0AE
:107EA000102F00270E291F29000F111F8ED06801E7
:107EB0006FC0863521F484E090D080E0DECF843638
:107EC00009F040C070D06FD0082F6DD080E0C81688
:107ED00080E7D80618F4F601B7BEE895C0E0D1E017
:107EE00062D089930C17E1F7F0E0CF16F0E7DF06D8
:107EF00018F0F601B7BEE89568D007B600FCFDCFD4
:107F0000A601A0E0B1E02C9130E011968C91119780
:107F100090E0982F8827822B932B1296FA010C0160
:107F200087BEE89511244E5F5F4FF1E0A038BF0790
:107F300051F7F601A7BEE89507B600FCFDCF97BE46
:107F4000E89526C08437B1F42ED02DD0F82E2BD052
:107F50003CD0F601EF2C8F010F5F1F4F84911BD097
:107F6000EA94F801C1F70894C11CD11CFA94CF0C13
:107F7000D11C0EC0853739F428D08EE10CD085E9AC
:107F80000AD08FE07ACF813511F488E018D01DD067
:107F900080E101D065CF982F8091C00085FFFCCF94
:107FA0009093C60008958091C00087FFFCCF809118
:107FB000C00084FD01C0A8958091C6000895E0E648
:107FC000F0E098E1908380830895EDDF803219F02E
:107FD00088E0F5DFFFCF84E1DECF1F93182FE3DFCA
:107FE0001150E9F7F2DF1F91089580E0E8DFEE27F6
:047FF000FF270994CA
:027FFE00040479
:00000001FF
