:020000020000FC
:020000003DC001
:020004002AC010
:02000800189549
:02000C00189545
:02001000189541
:0200140018953D
:02001800189539
:02001C00189535
:02002000189531
:0200240018952D
:02002800189529
:02002C0012C000
:02003000189521
:0200340018951D
:02003800189519
:02003C00189515
:02004000189511
:0200440018950D
:02004800189509
:02004C00189505
:1000500018952FB643952FBE18952FB610FF06C0E2
:1000600022B7342F00E003BF1E7F06C000E002BFAE
:10007000442704E003BF11602FBE18950FE50DBFA4
:1000800008E00EBF002701BB0FEF07BB04BB00E079
:1000900003BF02BF01E009BF03E005BF00E40BBFDF
:1000A0001127222733274427789428BB35BBFDCF5F
:00000001FF
