:020000020000FC
:0200000028C016
:0200040018954D
:02000800189549
:02000C00189545
:02001000189541
:0200140018953D
:02001800189539
:02001C0046C0DC
:02002000189531
:0200240018952D
:0200280049C0CD
:02002C00189525
:02003000189521
:0200340018951D
:02003800189519
:02003C00189515
:020040004CC0B2
:0200440018950D
:02004800189509
:02004C00189505
:1000500018950FE50DBF08E00EBF00270ABB0FE0A3
:1000600007BB0FEF01BBA0E6B0E00FE30D930D93CC
:100070000D930D93A0E6B0E037EF11272227442718
:1000800055270CE90CBF0DE003BF04E00BBD01EEEA
:100090000ABD0AE00EBD00270FBD02E109BF01E461
:1000A00007B90EEC06B97894FFCF2FB60F9301E491
:1000B00007B90EEC06B90F912FBE18952FB60F9306
:1000C0000FE008BB0D9102BB38BB359518F037EF38
:1000D000A0E6B0E00F912FBE18952FB60F9307B191
:1000E0000F71013049F444B155B102E407B90EEC87
:1000F00006B90F912FBE189514B125B1411B520BB3
:1001000012F444275527142F252F03D00F912FBE0B
:1001100018954F935F93332448EE53E01417250747
:1001200020F0141B250B3394F9CFE6E9F1E0E30D41
:100130003324F31D449140936300332444E650E09C
:100140001417250720F0141B250B3394F9CFE6E98B
:10015000F1E0E30D3324F31D449140936200332416
:100160004AE050E01417250720F0141B250B3394A8
:10017000F9CFE6E9F1E0E30D3324F31D4491409318
:100180006100E6E9F1E0E10FF21F44914093600065
:100190005F914F9108953F065B4F666D7D077F6FBE
:00000001FF
