:100000000C942D000C94A7010C94A7010C94A7014B
:100010000C94A7010C94A7010C94A7010C94A701C0
:100020000C94A7010C94A7010C94A7010C94A701B0
:100030000C94A7010C94A7010C94A7010C94A701A0
:100040000C94F9000C94A7010C94A7010C94A7013F
:100050000C94A70100600067800011241FBECFE54B
:10006000D8E0DEBFCDBFE4E5F0E040E017C0B591D9
:10007000A59135912591059107FD0CC0959185912C
:10008000EF01F92FE82F05900D92A217B307D9F7CA
:10009000FE0104C01D92A217B307E1F7E935F4078A
:0E00A00031F70E94BA000C948701F894FFCF4C
:1000AE00414443313A20002020414443333A20005A
:0B00BE0020204F75743A20000D0A004E
:1000CA001F93CF93DF9300D000D000D0CDB7DEB717
:1000DA00AC011E82892B91F580E38D8314E032C036
:1000EA0011509A01ADECBCEC0E9478019695879567
:1000FA0096958795969587959C01220F331F880FB1
:10010A00991F880F991F880F991F820F931F9A01B1
:10011A00281B390BC901E1E0F0E0EC0FFD1FE10FEC
:10012A00F11D805D80839A010E947801AC01569589
:10013A004795569547955695479501C015E041153F
:10014A00510571F661E070E06C0F7D1F610F711D42
:10015A0080E80E94620126960FB6F894DEBF0FBEB1
:0A016A00CDBFDF91CF911F910895E2
:100174001ABA17BA14BA82E081BB85EF8BBB8FEF32
:1001840088BB85BB82BB81E487B98FE886B98FE1E0
:1001940091E00E949B0181E00E94920178948091F9
:1001A40066008823E1F310926600809160009091CC
:1001B400610001969093610080936000843F9140B8
:1001C40070F31092610010926000F89480916400C2
:1001D4009091650060916200709163007894AC0125
:0E01E400440F551F460F571F0E943501D8CFFC
:1001F2001F920F920FB60F9211242F933F934F939A
:100202005F936F937F938F939F93AF93BF93EF937C
:10021200FF9387B18F70813051F484B195B190937F
:1002220065008093640083E00E9492010CC084B157
:1002320095B1909363008093620081E00E949201E5
:1002420081E080936600FF91EF91BF91AF919F9102
:100252008F917F916F915F914F913F912F910F906D
:080262000FBE0F901F901895CC
:10026A00EF92FF920F931F93CF93DF937C018B0141
:10027A00EA016EEA70E080E00E946201C7010E9412
:10028A00650065EB70E080E00E946201C8010E948F
:10029A0065006EEB70E080E00E946201CE010E9470
:1002AA00650066EC70E080E00E946201DF91CF9108
:0A02BA001F910F91FF90EF9008953F
:1002C400CF92DF92EF926B01E82E06C09FEFC91A1E
:1002D400D90AE90A0E94A301F6018491E7FC80810E
:0C02E4008111F4CFEF90DF90CF900895CF
:1002F000A29FB001B39FC001A39F700D811D112467
:0E030000911DB29F700D811D1124911D089555
:10030E00EC010E94AC010E94AB01CE010E94AD0136
:06031E00CE010E94A901BE
:10032400877097B1987F892B87B986B1806486B925
:0203340008952A
:1003360090BD89B988E08AB986E880BD90BD0895E8
:080346005D9BFECF8CB9089508
:04034E000C9400000B
:040352000E945500B0
:02035600089508
:02035800089506
:02035A00089504
:00000001FF
