:100000000C945D000C9485000C9485000C94850084
:100010000C9485000C9485000C9485000C9485004C
:100020000C9485000C9485000C9485000C9485003C
:100030000C9485000C9485000C9485000C9485002C
:100040000C946F030C9485000C94DF030C94B9039B
:100050000C9485000C9485000C9485000C9485000C
:100060000C9485000C94850000000008000201003B
:100070000003040700000000000000000000000072
:10008000250028002B0000000000240027002A0083
:10009000040404040404040402020202020203032E
:1000A0000303030301020408102040800102040836
:1000B0001020010204081020110411241FBECFEFEC
:1000C000D8E0DEBFCDBF21E0A6E2B1E001C01D92C5
:1000D000AB3EB207E1F711E0A0E0B1E0E4E9FFE0F8
:1000E00002C005900D92A632B107D9F710E0CDE518
:1000F000D0E004C02197FE010E94D005CC35D10785
:10010000C9F70E945B040C94C8070C94000090E0AF
:10011000FC01EC55FF4F249180579F4FFC018491C7
:10012000882399F090E0880F991FFC01EA57FF4F50
:10013000A591B491FC01E458FF4F859194918FB73C
:10014000F894EC91E22BEC938FBF089590E0FC01C2
:10015000E859FF4F2491FC01EC55FF4F3491FC010D
:10016000E057FF4FE491EE23C9F0222339F023300A
:1001700001F1A8F4213019F1223029F1F0E0EE0F5D
:10018000FF1FE458FF4FA591B4918FB7F894EC91FD
:10019000611126C030953E233C938FBF08952730D0
:1001A000A9F02830C9F0243049F7809180008F7D74
:1001B00003C0809180008F7780938000DFCF84B56B
:1001C0008F7784BDDBCF84B58F7DFBCF8091B0006E
:1001D0008F778093B000D2CF8091B0008F7DF9CF20
:1001E0003E2BDACFAF92BF92CF92DF92EF92FF9287
:1001F0000F931F93CF93DF936C017B018B01040F4F
:10020000151FEB015E01AE18BF08C017D10759F0EA
:100210006991D601ED91FC910190F081E02DC6012C
:100220000995892B79F7C501DF91CF911F910F9126
:10023000FF90EF90DF90CF90BF90AF900895FC01BA
:10024000538D448D252F30E0842F90E0821B930B3B
:10025000541710F0CF96089501970895FC01918DE1
:10026000828D981761F0A28DAE0FBF2FB11D5D96E4
:100270008C91928D9F5F9F73928F90E008958FEF86
:100280009FEF0895FC01918D828D981731F0828D3A
:10029000E80FF11D858D90E008958FEF9FEF089591
:1002A000FC01918D228D892F90E0805C9F4F821BF5
:1002B00091098F739927089582E391E00E9450017C
:1002C00021E0892B09F420E0822F089580E090E05E
:1002D000892B29F00E945C0181110C940000089583
:1002E000FC01A48DA80FB92FB11DA35ABF4F2C91AB
:1002F000848D90E001968F739927848FA689B789A2
:100300002C93A089B1898C91837080648C93938D98
:10031000848D981306C00288F389E02D80818F7D3B
:1003200080830895EF92FF920F931F93CF93DF93F3
:10033000EC0181E0888F9B8D8C8D98131AC0E88921
:10034000F989808185FF15C09FB7F894EE89FF89F0
:100350006083E889F98980818370806480839FBF8E
:1003600081E090E0DF91CF911F910F91FF90EF908E
:100370000895F62E0B8D10E00F5F1F4F0F7311279E
:10038000E02E8C8D8E110CC00FB607FCFACFE889D9
:10039000F989808185FFF5CFCE010E947001F1CFF0
:1003A000EB8DEC0FFD2FF11DE35AFF4FF0829FB74D
:1003B000F8940B8FEA89FB8980818062CFCFCF933D
:1003C000DF93EC01888D8823B9F0AA89BB89E8897D
:1003D000F9898C9185FD03C0808186FD0DC00FB623
:1003E00007FCF7CF8C9185FFF2CF808185FFEDCFA1
:1003F000CE010E947001E9CFDF91CF910895089559
:1004000090E080E008950F931F93CF93DF93EC016A
:1004100088819981009759F02A813B8126173707F7
:1004200030F081E0DF91CF911F910F9108958B0102
:100430006F5F7F4F0E94FB06009759F09983888376
:100440001B830A832C813D81232B59F7FC011082E9
:10045000E8CF80E0E7CFCF93DF93EC0160E08E81BF
:100460000E94A60061E08E810E94A60060E08E815D
:100470000E94A6008BE891E00197F1F7DF91CF9100
:100480000895CF92DF92EF92FF920F931F93CF9335
:10049000DF936C017C0187E0E80EF11CD0E0C0E046
:1004A000062F10E0B8010C2E02C0759567950A94CE
:1004B000E2F76170F70181917F010E94A600219609
:1004C000C430D10579F7C601DF91CF911F910F910B
:1004D000FF90EF90DF90CF900C942B02CF92DF92A1
:1004E000EF92FF920F931F93CF93DF93EC01F62EC1
:1004F000642F8C810E94A6008D818F3F19F060E0EF
:100500000E94A6000F2D10E08F8584FF25C06E018C
:1005100087E0C80ED11CF12CE12CB8010E2C02C0D2
:10052000759567950A94E2F76170F60181916F0104
:100530000E94A600FFEFEF1AFF0A88E0E816F10418
:1005400061F7CE01DF91CF911F910F91FF90EF9056
:10055000DF90CF900C942B02B80184E075956795DD
:100560008A95E1F7CE010E9441026F2DCE01DF9105
:10057000CF911F910F91FF90EF90DF90CF900C944F
:10058000410240E0682F8FEC91E00C946E02CF9313
:10059000DF93823029F49091DE0198609093DE0120
:1005A0008093E2011092E30180E48093E40180E112
:1005B0008093E50180E58093E6018091D3010E945C
:1005C00087008091D4018F3F11F00E9487008091B5
:1005D000D5010E948700CFECD1E09E012F5C314015
:1005E0008091DE0184FD0AC084E090E02196281706
:1005F00039073CF48E810E948700EFCF88E090E0BD
:10060000F5CF8BE39DE00197F1F760E08091D30196
:100610000E94A60060E08091D5010E94A600809112
:10062000D4018F3F19F060E00E94A6008091DE01A6
:1006300084FD39C063E08FEC91E00E944102CBE47D
:10064000D6E4CE010197F1F763E08FEC91E00E94D0
:1006500041022197F1F763E08FEC91E00E944102A3
:1006600083E592E00197F1F762E08FEC91E00E9460
:1006700041028091DE0180620E94C10284E0809389
:10068000DF018CE00E94C10281E00E94C1028BE385
:100690009FE10197F1F782E08093E00186E0DF912E
:1006A000CF910C94C10280620E94C1028BE496E457
:1006B0000197F1F78091DE0180620E94C10283E51B
:1006C00092E00197F1F78091DE0180620E94C10201
:1006D000D0CF41E00E946E0281E090E008951F9229
:1006E0000F920FB60F9211242F933F938F939F93E6
:1006F000AF93BF9380912E0190912F01A091300173
:10070000B091310130912D0123E0230F2D3758F5A1
:100710000196A11DB11D20932D0180932E01909370
:100720002F01A0933001B093310180912901909164
:100730002A01A0912B01B0912C010196A11DB11DA0
:100740008093290190932A01A0932B01B0932C014F
:10075000BF91AF919F918F913F912F910F900FBEBD
:100760000F901F90189526E8230F0296A11DB11D2A
:10077000D2CF1F920F920FB60F9211242F933F9357
:100780004F935F936F937F938F939F93AF93BF9399
:10079000EF93FF9382E391E00E947001FF91EF914C
:1007A000BF91AF919F918F917F916F915F914F9189
:1007B0003F912F910F900FBE0F901F9018951F9291
:1007C0000F920FB60F9211242F938F939F93EF9355
:1007D000FF93E0914201F09143018081E091480153
:1007E000F091490182FD1BC0908180914B018F5F88
:1007F0008F7320914C01821741F0E0914B01F0E0A2
:10080000EE5CFE4F958F80934B01FF91EF919F918E
:100810008F912F910F900FBE0F901F901895808190
:10082000F4CFE2E3F1E01382128288EE93E0A0E0DD
:10083000B0E084839583A683B7838AE091E09183B7
:10084000808385EC90E09587848784EC90E097879F
:10085000868780EC90E0918B808B81EC90E0938B8D
:10086000828B82EC90E0958B848B86EC90E0978B6A
:10087000868B118E128E138E148EEFECF1E01382A4
:1008800012828CE191E0918380838CE084838FEFEE
:1008900085838BE0868385E0878384E0808783E09F
:1008A000818782E0828713861486158616861786CE
:1008B00081E00C94C702CF93DF93CDB7DEB72897C2
:1008C0000FB6F894DEBF0FBECDBF789484B58260BA
:1008D00084BD84B5816084BD85B5826085BD85B5E4
:1008E000816085BD80916E00816080936E00109262
:1008F00081008091810082608093810080918100DD
:10090000816080938100809180008160809380006D
:100910008091B10084608093B1008091B0008160CB
:100920008093B00080917A00846080937A008091F7
:100930007A00826080937A0080917A00816080934F
:100940007A0080917A00806880937A001092C100CA
:1009500082E00E94C702E0914201F091430182E0EF
:100960008083E0913E01F0913F011082E0914001CF
:10097000F09141018FEC808310924A01E091460191
:10098000F091470186E08083E0914401F0914501B8
:10099000808180618083E0914401F09145018081F4
:1009A00088608083E0914401F091450180818068F6
:1009B0008083E0914401F091450180818F7D8083A7
:1009C0008BE3E82E8FE1F82E00E010E082E391E067
:1009D0000E945001892BD1F31A8219821C821B823A
:1009E0001E821D8270E060E0CE0101960E9403022B
:1009F00029813A81811133C02115310519F0C901CE
:100A00000E9472061A8219821E821D821C821B821B
:100A100082E391E00E9450011816190644F582E322
:100A200091E00E942E018F831886CD80DE808FEFAB
:100A3000C81AD80AB601CE0101960E940302882383
:100A400039F329813A818D819E81BE01695F7F4F93
:100A5000820F931F0E94C107DE82CD82D9CF1E82F2
:100A60001D8264E271E0C9010E94C107D1CFC0902C
:100A70002701D09028018D819E818C0D9D1D41976D
:100A800040F180912601811110C081E08093260100
:100A9000E091E201E23008F04AC0E150F0E0E153B9
:100AA000FE4F848980680E94C1028D819E81C80E9C
:100AB000D91E81E2C816D10460F081E00E94C10213
:100AC000C7010197F1F710922801109227011092A7
:100AD00026014D815E8169817A818FEC91E00E94CF
:100AE000F2004D815E8169817A8182E391E00E940A
:100AF000F20080912701909128012D813E81820F83
:100B0000931F909328018093270189819A810097F0
:100B100011F00E9472060115110509F457CF0E94C9
:100B20005C01882309F452CF0E9400004FCFE1E01E
:100B3000B5CF2F923F924F925F926F927F928F929A
:100B40009F92AF92BF92CF92DF92EF92FF920F935C
:100B50001F93CF93DF93CDB7DEB7CA1BDB0B0FB666
:100B6000F894DEBF0FBECDBF09942A883988488823
:100B70005F846E847D848C849B84AA84B984C884B9
:100B8000DF80EE80FD800C811B81AA81B981CE0FB0
:100B9000D11D0FB6F894DEBF0FBECDBFED01089595
:100BA000EE0FFF1F0590F491E02D09940F931F9312
:100BB000CF93DF938230910510F482E090E0E091D2
:100BC000E901F091EA0130E020E0B0E0A0E03097E8
:100BD00099F42115310509F44AC0281B390B24303A
:100BE0003105D8F58A819B816115710589F1FB0179
:100BF00093838283FE0111C0408151810281138160
:100C000048175907E0F04817590799F4109761F011
:100C100012960C93129713961C933296CF01DF9184
:100C2000CF911F910F9108950093E9011093EA016C
:100C3000F4CF2115310551F04217530738F0A901BF
:100C4000DB019A01BD01DF01F801C1CFEF01F9CF4E
:100C50009093EA018093E901CDCFFE01E20FF31FEB
:100C6000819391932250310939832883D7CF2091E2
:100C7000E7013091E801232B41F4209102013091EA
:100C800003013093E8012093E701209100013091A6
:100C900001012115310541F42DB73EB74091040102
:100CA00050910501241B350BE091E701F091E8011B
:100CB000E217F307A0F42E1B3F0B2817390778F033
:100CC000AC014E5F5F4F2417350748F04E0F5F1F92
:100CD0005093E8014093E701819391939FCFF0E017
:100CE000E0E09CCFCF93DF930097E9F0FC013297CF
:100CF00013821282A091E901B091EA01ED0130E086
:100D000020E01097A1F420813181820F931F209160
:100D1000E7013091E8012817390709F061C0F09325
:100D2000E801E093E701DF91CF910895EA01CE1742
:100D3000DF07E8F54A815B819E0141155105B1F756
:100D4000E901FB83EA8349915991C40FD51FEC1740
:100D5000FD0761F4808191810296840F951FE9015E
:100D600099838883828193819B838A83F0E0E0E08A
:100D700012968D919C9113970097B9F52D913C9106
:100D80001197CD010296820F931F2091E7013091B8
:100D9000E8012817390739F6309751F51092EA0122
:100DA0001092E901B093E801A093E701BCCFD3838F
:100DB000C28340815181840F951FC817D90761F400
:100DC0004E5F5F4F88819981480F591F518340833F
:100DD0008A819B81938382832115310509F0B0CFED
:100DE000F093EA01E093E9019ECFFD01DC01C0CF61
:100DF00013821282D7CFB0E0A0E0E1E0F7E00C94DC
:100E00009B058C01009751F4CB010E94D6058C0103
:100E1000C801CDB7DEB7E0E10C94B705FC01E60FE1
:100E2000F71F9C0122503109E217F30708F49DC017
:100E3000D901CD91DC911197C617D70798F0C5302D
:100E4000D10530F3CE0104978617970708F3C61B28
:100E5000D70B2297C193D1936D937C93CF010E94BE
:100E60007206D6CF5B01AC1ABD0A4C018C0E9D1EDA
:100E7000A091E901B091EA01512C412CF12CE12C17
:100E8000109731F58091E7019091E8018815990557
:100E900009F05CC04616570608F058C08091000162
:100EA00090910101009741F48DB79EB740910401E4
:100EB00050910501841B950BE817F90708F055C000
:100EC000F093E801E093E701F90171836083A0CF1B
:100ED0008D919C91119712966C90129713967C901D
:100EE0001397A815B90559F56C0142E0C40ED11C41
:100EF000CA14DB0420F1AC014A195B09DA0112962D
:100F0000159780F06282738251834083D9016D937B
:100F10007C93E114F10471F0D7011396FC93EE93E6
:100F2000129776CF22968C0F9D1FF90191838083B3
:100F3000F301EFCFF093EA01E093E90169CF48169E
:100F4000590608F42C017D01D3019ACFCB010E94F0
:100F5000D6057C01009749F0AE01B8010E94B807A0
:100F6000C8010E947206870153CF10E000E050CF05
:100F7000FB01DC0102C001900D9241505040D8F7B6
:100F80000895FB01DC0101900D920020E1F7089526
:040F9000F894FFCF03
:100F94000000EB018000000000009201F2001F013C
:100FA400DF0150012E014201000000006903F2003C
:060FB4000002FF01000035
:00000001FF
