:020000020000FC
:0200000040C0FE
:020038001CC0EA
:02003C00189515
:1000400000C02FB604B115B107B10170013041F005
:10005000009364001093650003E407B9369A07C063
:10006000009366001093670001E407B9369A2FBE2B
:1000700018952FB609910CB96A9509F455982FBEB9
:1000800018950FE50DBF08E00EBF00270ABB01E47D
:1000900007B90CE806B9369A01E000BD0FE109B9CD
:1000A00000270BB908E00AB906E800BD7894F89477
:1000B0002091640030916500409166005091670086
:1000C0007894220F331F240F351FE0E6F0E003E29F
:1000D0000193032F0193022F01930AE0008364E050
:1000E000C0E6D0E009910CB96A950AB100620AB97C
:0600F0005599FECFDCCFA4
:00000001FF
