:100000000C9462000C948A000C948A000C948A0070
:100010000C948A000C948A000C948A000C948A0038
:100020000C948A000C948A000C948A000C948A0028
:100030000C948A000C948A000C948A000C948A0018
:100040000C94BE030C948A000C942E040C940804A7
:100050000C948A000C948A000C948A000C948A00F8
:100060000C948A000C948A000000000023002600F3
:10007000290000000000240027002A0000000000E2
:10008000250028002B0004040404040404040202D4
:100090000202020203030303030301020408102007
:1000A0004080010204081020010204081020000012
:1000B0000008000201000003040700000000000027
:1000C0000000600411241FBECFEFD8E0DEBFCDBF1B
:1000D00011E0A0E0B1E0ECEBF1E102C005900D927F
:1000E000A833B107D9F721E0A8E3B1E001C01D9220
:1000F000AC3FB207E1F710E0C2E6D0E004C02197C0
:10010000FE010E94D608C136D107C9F70E94AA0491
:100110000C94DC080C940000833081F028F48130CA
:1001200099F08230A9F008958730A9F08830C9F09D
:100130008430B1F4809180008F7D03C08091800075
:100140008F7780938000089584B58F7784BD08955C
:1001500084B58F7DFBCF8091B0008F778093B00006
:1001600008958091B0008F7DF9CF1F93CF93DF93D7
:10017000282F30E0F901E255FF4F8491F901E6564E
:10018000FF4FD491F901EA57FF4FC491CC23A9F056
:10019000162F81110E948C00EC2FF0E0EE0FFF1F54
:1001A000E458FF4FA591B4918FB7F894EC911111D9
:1001B00008C0D095DE23DC938FBFDF91CF911F91D4
:1001C0000895DE2BF8CFCF93DF9390E0FC01E65645
:1001D000FF4F24918A579F4FFC0184918823D1F0CF
:1001E00090E0880F991FFC01EE58FF4FA591B49144
:1001F000FC01E458FF4FC591D49161110EC09FB727
:10020000F8948C91E22FE0958E238C932881E22341
:10021000E8839FBFDF91CF9108958FB7F894EC9159
:10022000E22BEC938FBFF6CFAF92BF92CF92DF92CB
:10023000EF92FF920F931F93CF93DF936C017B019B
:100240008B01040F151FEB015E01AE18BF08C0172C
:10025000D10759F06991D601ED91FC910190F0819F
:10026000E02DC6010995892B79F7C501DF91CF9162
:100270001F910F91FF90EF90DF90CF90BF90AF90C4
:100280000895FC01538D448D252F30E0842F90E09C
:10029000821B930B541710F0CF9608950197089581
:1002A000FC01918D828D981761F0A28DAE0FBF2F4A
:1002B000B11D5D968C91928D9F5F9F73928F90E0A0
:1002C00008958FEF9FEF0895FC01918D828D98170F
:1002D00031F0828DE80FF11D858D90E008958FEF4C
:1002E0009FEF0895FC01918D228D892F90E0805C15
:1002F0009F4F821B91098F739927089587E491E09E
:100300000E94720121E0892B09F420E0822F0895D8
:1003100080E090E0892B29F00E947E0181110C94ED
:1003200000000895FC01A48DA80FB92FB11DA35A98
:10033000BF4F2C91848D90E001968F739927848F05
:10034000A689B7892C93A089B1898C918370806428
:100350008C93938D848D981306C00288F389E02DC9
:1003600080818F7D80830895EF92FF920F931F937A
:10037000CF93DF93EC0181E0888F9B8D8C8D981358
:100380001AC0E889F989808185FF15C09FB7F89464
:10039000EE89FF896083E889F989808183708064B0
:1003A00080839FBF81E090E0DF91CF911F910F91FB
:1003B000FF90EF900895F62E0B8D10E00F5F1F4F0A
:1003C0000F731127E02E8C8D8E110CC00FB607FC19
:1003D000FACFE889F989808185FFF5CFCE010E94A7
:1003E0009201F1CFEB8DEC0FFD2FF11DE35AFF4F82
:1003F000F0829FB7F8940B8FEA89FB898081806235
:10040000CFCFCF93DF93EC01888D8823B9F0AA89F1
:10041000BB89E889F9898C9185FD03C0808186FDBF
:100420000DC00FB607FCF7CF8C9185FFF2CF80810E
:1004300085FFEDCFCE010E949201E9CFDF91CF91F0
:100440000895089590E080E00895FC010190002057
:10045000E9F73197AF01481B590BBC0184EE91E0DD
:100460000C9414018F929F92AF92BF920F931F939F
:10047000CF93DF93CDB7DEB7A1970FB6F894DEBF69
:100480000FBECDBF19A2423008F44AE08E010F5DC5
:100490001F4F842E912CB12CA12CA50194010E94F8
:1004A000B408E62FB901CA01EA30F4F4E05DD801DE
:1004B000EE938D01232B242B252B79F790E080E000
:1004C000109719F0CD010E942502A1960FB6F8945D
:1004D000DEBF0FBECDBFDF91CF911F910F91BF90B7
:1004E000AF909F908F900895E95CE1CFCF93DF9319
:1004F000EC0160E08E810E94B50061E08E810E9477
:10050000B50060E08E810E94B5008BE891E0019714
:10051000F1F7DF91CF910895CF92DF92EF92FF92A2
:100520000F931F93CF93DF936C017C0187E0E80E5C
:10053000F11CD0E0C0E0062F10E0B8010C2E02C084
:10054000759567950A94E2F76170F70181917F01D3
:100550000E94B5002196C430D10579F7C601DF911C
:10056000CF911F910F91FF90EF90DF90CF900C945F
:100570007602CF92DF92EF92FF920F931F93CF9369
:10058000DF93EC01F62E642F8C810E94B5008D81E3
:100590008F3F19F060E00E94B5000F2D10E08F85AD
:1005A00084FF25C06E0187E0C80ED11CF12CE12C20
:1005B000B8010E2C02C0759567950A94E2F7617038
:1005C000F60181916F010E94B500FFEFEF1AFF0A5B
:1005D00088E0E816F10461F7CE01DF91CF911F9119
:1005E0000F91FF90EF90DF90CF900C947602B801BE
:1005F00084E0759567958A95E1F7CE010E948C029B
:100600006F2DCE01DF91CF911F910F91FF90EF9051
:10061000DF90CF900C948C0240E0682F84EE91E044
:100620000C94B902CF93DF93823029F49091F301B7
:1006300098609093F3018093F7011092F80180E4A1
:100640008093F90180E18093FA0180E58093FB01BA
:1006500061E08091E8010E94E3008091E9018F3F11
:1006600019F061E00E94E30061E08091EA010E94DC
:10067000E300C4EED1E09E01245E31408091F3019D
:1006800084FD0BC084E090E021962817390744F4DC
:1006900061E08E810E94E300EECF88E090E0F4CF2D
:1006A0008BE39DE00197F1F760E08091E8010E9403
:1006B000B50060E08091EA010E94B5008091E901F7
:1006C0008F3F19F060E00E94B5008091F30184FD36
:1006D00039C063E084EE91E00E948C02CBE4D6E462
:1006E000CE010197F1F763E084EE91E00E948C0265
:1006F0002197F1F763E084EE91E00E948C0283E59C
:1007000092E00197F1F762E084EE91E00E948C02A2
:100710008091F30180620E940C0384E08093F401D5
:100720008CE00E940C0381E00E940C038BE39FE1AC
:100730000197F1F782E08093F50186E0DF91CF9198
:100740000C940C0380620E940C038BE496E40197E6
:10075000F1F78091F30180620E940C0383E592E03F
:100760000197F1F78091F30180620E940C03D0CFD2
:1007700041E00E94B90281E090E008951F920F923B
:100780000FB60F9211242F933F938F939F93AF93A4
:10079000BF938091430190914401A0914501B09194
:1007A00046013091420123E0230F2D3758F5019681
:1007B000A11DB11D209342018093430190934401F8
:1007C000A0934501B093460180913E0190913F0175
:1007D000A0914001B09141010196A11DB11D8093EE
:1007E0003E0190933F01A0934001B0934101BF911E
:1007F000AF919F918F913F912F910F900FBE0F90CE
:100800001F90189526E8230F0296A11DB11DD2CF87
:100810001F920F920FB60F9211242F933F934F9375
:100820005F936F937F938F939F93AF93BF93EF9358
:10083000FF9387E491E00E949201FF91EF91BF91B5
:10084000AF919F918F917F916F915F914F913F9168
:100850002F910F900FBE0F901F9018951F920F921F
:100860000FB60F9211242F938F939F93EF93FF93C3
:10087000E0915701F09158018081E0915D01F09184
:100880005E0182FD1BC09081809160018F5F8F733C
:1008900020916101821741F0E0916001F0E0E95B95
:1008A000FE4F958F80936001FF91EF919F918F9103
:1008B0002F910F900FBE0F901F9018958081F4CF4D
:1008C000E7E4F1E01382128288EE93E0A0E0B0E06A
:1008D00084839583A683B78384E091E091838083AA
:1008E00085EC90E09587848784EC90E097878687F5
:1008F00080EC90E0918B808B81EC90E0938B828BED
:1009000082EC90E0958B848B86EC90E0978B868BC5
:10091000118E128E138E148EE4EEF1E01382128289
:1009200086E191E0918380838CE084838FEF8583DF
:100930008BE0868385E0878384E0808783E08187FE
:1009400082E082871386148615861686178681E0D4
:100950000C941203789484B5826084BD84B5816060
:1009600084BD85B5826085BD85B5816085BD80917A
:100970006E00816080936E001092810080918100F2
:1009800082608093810080918100816080938100EA
:10099000809180008160809380008091B1008460AC
:1009A0008093B1008091B00081608093B00080910D
:1009B0007A00846080937A0080917A0082608093CC
:1009C0007A0080917A00816080937A0080917A0029
:1009D000806880937A001092C10088E090E0909344
:1009E00039018093380187E090E090933B01809338
:1009F0003A0186E090E090933D0180933C0160E0F5
:100A000088E00E94E30060E087E00E94E30060E08D
:100A100086E00E94E30082E00E941203E091570109
:100A2000F091580182E08083E0915301F0915401EC
:100A30001082E0915501F09156018FEC8083109265
:100A40005F01E0915B01F0915C0186E08083E091C1
:100A50005901F0915A01808180618083E0915901B0
:100A6000F0915A01808188608083E0915901F09172
:100A70005A01808180688083E0915901F0915A0188
:100A800080818F7D80830BE31FE120E0222E20E018
:100A9000322EC8E3D1E0812C912C5401839429910A
:100AA00039913327F901E255FF4F8491F901E65658
:100AB000FF4FF490F901EA57FF4FE490EE2009F45C
:100AC00069C081110E948C00EE2DF0E0EE0FFF1F37
:100AD000E859FF4FA591B491EC91FE2209F45AC058
:100AE0006FEF680D87E491E00E94B40187E491E024
:100AF0000E947201181619060CF04CC081E00E9489
:100B00000C03C8010197F1F787E491E00E945001BE
:100B1000BC01990F880B990B0E948D0720E030E0F3
:100B200040EA50E40E94420820E030EC4FE754E4F1
:100B30000E94EA066B017C01E1E08091F7018111DE
:100B4000E0E0E195F0E0EC51FE4F848980680E947E
:100B50000C038EE191E00E9425024AE0C501B40138
:100B60000E943202E091F701E23060F5E150F0E0DE
:100B7000EC51FE4F848980680E940C03A701960106
:100B8000C701B6010E94AF088823F1F08CE291E022
:100B90000E9425028FEF881A980AA80AB80A84E0F2
:100BA00088169104A104B10409F079CF211431040D
:100BB00009F46FCF0E947E01882309F46ACF0E9456
:100BC000000067CFE1E0D3CF26013701E89477F842
:100BD0002FEF3FEF4FE75FE7C301B2010E94AF087D
:100BE00081110DC02FEF3FEF4FE75FE7C301B20167
:100BF0000E94E50618161CF480E391E0C9CF2FEFA0
:100C00003FEF4FE75FE4C701B6010E943D081816A9
:100C10001CF484E391E0BCCF2FEF3FEF4FE75FEC94
:100C2000C701B6010E94E50687FDF3CF20E030E062
:100C3000A901C701B6010E94E50687FF0AC041E08D
:100C40006DE284EE91E00E94B902F7FAF094F7F8B1
:100C5000F0942AE037ED43EA5BE3C701B6010E9456
:100C600079062B013C010E945C076B017C010E940C
:100C70008B079B01AC01C301B2010E9478062B01D6
:100C80003C014AE0C701B6010E94320241E06EE237
:100C900084EE91E00E94B90220E030E040E251E4AD
:100CA000C301B2010E9442082B013C010E945C0773
:100CB0006B01F12CE12C4AE0C701B6010E9432021F
:100CC000C701B6010E948B079B01AC01C301B201B1
:100CD0000E94780620E030E040E251E40E944208A1
:100CE0000E945C0790E080E04AE00E94320252CF0E
:100CF0005058BB27AA270E9490060C9403080E9414
:100D0000F50738F00E94FC0720F039F49F3F19F4F2
:100D100026F40C94F2070EF4E095E7FB0C94EC0734
:100D2000E92F0E94140858F3BA1762077307840763
:100D3000950720F079F4A6F50C9436080EF4E095AA
:100D40000B2EBA2FA02D0B01B90190010C01CA0185
:100D5000A0011124FF27591B99F0593F50F4503E30
:100D600068F11A16F040A22F232F342F4427585F22
:100D7000F3CF469537952795A795F0405395C9F73A
:100D80007EF41F16BA0B620B730B840BBAF09150F2
:100D9000A1F0FF0FBB1F661F771F881FC2F70EC091
:100DA000BA0F621F731F841F48F487957795679564
:100DB000B795F7959E3F08F0B0CF9395880F08F050
:100DC0009927EE0F9795879508950E94C80708F414
:100DD00081E008950E94FE060C9403080E94FC071F
:100DE00058F00E94F50740F029F45F3F29F00C9479
:100DF000EC0751110C9437080C94F2070E94140868
:100E000068F39923B1F3552391F3951B550BBB2739
:100E1000AA2762177307840738F09F5F5F4F220F7E
:100E2000331F441FAA1FA9F335D00E2E3AF0E0E875
:100E300032D091505040E695001CCAF72BD0FE2FBF
:100E400029D0660F771F881FBB1F26173707480753
:100E5000AB07B0E809F0BB0B802DBF01FF2793580B
:100E60005F4F3AF09E3F510578F00C94EC070C94DC
:100E700037085F3FE4F3983ED4F3869577956795FE
:100E8000B795F7959F5FC9F7880F911D9695879540
:100E900097F90895E1E0660F771F881FBB1F62175F
:100EA00073078407BA0720F0621B730B840BBA0B1D
:100EB000EE1F88F7E09508950E941C0888F09F5760
:100EC00098F0B92F9927B751B0F0E1F0660F771F6E
:100ED000881F991F1AF0BA95C9F714C0B13091F064
:100EE0000E943608B1E008950C943608672F782FD9
:100EF0008827B85F39F0B93FCCF386957795679529
:100F0000B395D9F73EF490958095709561957F4F94
:100F10008F4F9F4F0895E89409C097FB3EF490953A
:100F20008095709561957F4F8F4F9F4F9923A9F0C2
:100F3000F92F96E9BB279395F69587957795679551
:100F4000B795F111F8CFFAF4BB0F11F460FF1BC095
:100F50006F5F7F4F8F4F9F4F16C0882311F096E928
:100F600011C0772321F09EE8872F762F05C06623D6
:100F700071F096E8862F70E060E02AF09A95660F8F
:100F8000771F881FDAF7880F9695879597F9089548
:100F9000990F0008550FAA0BE0E8FEEF161617068A
:100FA000E807F907C0F012161306E407F50798F0F2
:100FB000621B730B840B950B39F40A2661F0232B0B
:100FC000242B252B21F408950A2609F4A140A69587
:100FD0008FEF811D811D089597F99F6780E870E06C
:100FE00060E008959FEF80EC089500240A9416169F
:100FF000170618060906089500240A941216130607
:10100000140605060895092E0394000C11F4882394
:1010100052F0BB0F40F4BF2B11F460FF04C06F5FB0
:101020007F4F8F4F9F4F089557FD9058440F551F86
:1010300059F05F3F71F04795880F97FB991F61F05A
:101040009F3F79F087950895121613061406551FD1
:10105000F2CF4695F1DF08C0161617061806991F3D
:10106000F1CF86957105610508940895E894BB2732
:1010700066277727CB0197F908950E94C80708F4DF
:101080008FEF08950E9455080C9403080E94F507FD
:1010900038F00E94FC0720F0952311F00C94EC0727
:1010A0000C94F20711240C9437080E94140870F372
:1010B000959FC1F3950F50E0551F629FF001729FFD
:1010C000BB27F00DB11D639FAA27F00DB11DAA1F0C
:1010D000649F6627B00DA11D661F829F2227B00D59
:1010E000A11D621F739FB00DA11D621F839FA00DE4
:1010F000611D221F749F3327A00D611D231F849F34
:10110000600D211D822F762F6A2F11249F5750408A
:101110009AF0F1F088234AF0EE0FFF1FBB1F661F05
:10112000771F881F91505040A9F79E3F510580F0CE
:101130000C94EC070C9437085F3FE4F3983ED4F32B
:10114000869577956795B795F795E7959F5FC1F772
:10115000FE2B880F911D9695879597F908950E940B
:10116000C807880B990B0895A1E21A2EAA1BBB1B76
:10117000FD010DC0AA1FBB1FEE1FFF1FA217B30763
:10118000E407F50720F0A21BB30BE40BF50B661F79
:10119000771F881F991F1A9469F76095709580953D
:1011A00090959B01AC01BD01CF010895EE0FFF1F8B
:0C11B0000590F491E02D0994F894FFCF15
:1011BC0000000000B4011401410101027201500150
:1011CC00640100000000B803140122022102566FD2
:1011DC006C74616A206275746F6E20006E616E00B3
:0811EC00696E66006F76660073
:00000001FF
