:020000020000FC
:0200000039C005
:0200040018954D
:02000800189549
:02000C00189545
:02001000189541
:0200140018953D
:02001800189539
:02001C0005C01D
:10002000189566FC013EEE1C0F930FB70F931F93BC
:100030003F93EF93FF930FEF08BBF0E0E2E211274D
:10004000E20FF11F349132BB00E2122F112319F09D
:1000500006951A95E9F71FEF102718BB2395263050
:1000600009F42227FF91EF913F911F910F910FBF4C
:100070000F9118950FE50DBF08E00EBF0FEF07BBFE
:1000800001BB0FEF08BB00E002BB222700E00BBD65
:100090000AEF0ABD0AE00EBD00E00FBD00E109BF96
:0400A0007894FFCF82
:00000001FF
